:100000000C9440010C9468010C9468010C946801F4
:100010000C9468010C9468010C9468010C946801BC
:100020000C9468010C9468010C9468010C941D0BED
:100030000C9468010C9468010C9468010C9468019C
:100040000C94D30A0C9468010C94A10A0C947B0ABA
:100050000C9468010C9468010C9468010C9468017C
:100060000C9468010C946801000000002300260035
:10007000290000000000240027002A0000000000E2
:10008000250028002B0000000008000201000003EA
:10009000040700000000000000002D2D2D2D2D2D47
:1000A0002D2D2D2D2D2D2D2D2D2D2D2D2D2D2D2D80
:1000B0002D2D2D2D2D2D2D2D2D2D2D2D2D2D0025A5
:1000C000005265736F6C7574696F6E3A202000255D
:1000D000004D696E2056616C75653A202020002520
:1000E000004D61782056616C75653A2020200055DE
:1000F0006E697175652049443A2020200044726978
:10010000766572205665723A20200053656E736FD3
:100110007220547970653A200048756D696469747D
:10012000792053656E736F72002D2D2D2D2D2D2D81
:100130002D2D2D2D2D2D2D2D2D2D2D2D2D2D2D2DEF
:100140002D2D2D2D2D2D2D2D2D2D2D2D2D00C2B0F4
:1001500043005265736F6C7574696F6E3A202000AE
:10016000C2B043004D696E2056616C75653A20201F
:100170002000C2B043004D61782056616C75653A2D
:1001800020202000556E697175652049443A202071
:100190002000447269766572205665723A2020000C
:1001A00053656E736F7220547970653A2000546500
:1001B0006D70657261747572652053656E736F72D0
:1001C000002D2D2D2D2D2D2D2D2D2D2D2D2D2D2D8C
:1001D0002D2D2D2D2D2D2D2D2D2D2D2D2D2D2D2D4F
:1001E0002D2D2D2D2D00444854787820556E6966AC
:1001F0006965642053656E736F72204578616D7018
:100200006C65004572726F722072656164696E6719
:100210002068756D69646974792100250048756DE1
:1002200069646974793A2000C2B0430054656D7006
:10023000657261747572653A20004572726F722042
:1002400072656164696E672074656D706572617452
:10025000757265210004040404040404040202020B
:1002600002020203030303030301020408102040F7
:100270008001020408102001020408102000D90B9C
:1002800011241FBECFEFD8E0DEBFCDBF11E0A0E04C
:10029000B1E0ECE6F7E202C005900D92A638B10796
:1002A000D9F722E0A6E8B1E001C01D92AB39B20750
:1002B000E1F711E0C0E4D1E004C02197FE010E9403
:1002C0007A12CF33D107C9F70E94AB0C0C94B41348
:1002D0000C9400008F929F92AF92BF92FF920F9367
:1002E0001F93CF93DF93F09058022BE02F1508F463
:1002F0004CC020915A0208E512E0021B110927FDAB
:100300001395000F111F000F111F20915902C8E80B
:10031000D0E0C21BD10927FDD395CC0FDD1FCC0F38
:10032000DD1F4E010D2E000CAA08BB089801012EFE
:10033000000C440B550B281939094A095B09DC01EB
:100340000E94F20F24EB30E040E050E00E94C80F22
:10035000820E931EA41EB51E8C169D062CF0E8017D
:10036000801691060CF4E4012297CC0FDD1F2FB705
:10037000F8948F2D90E0FC01EE0FFF1FE80FF91F9E
:10038000ED5CFD4FD283C1832FBFDF91CF911F91D1
:100390000F91FF90BF90AF909F908F900895DC01D8
:1003A000ED91FC910190F081E02D0994AF92BF9204
:1003B000CF92DF92EF92FF920F931F93CF93DF9331
:1003C0006C017B018B01040F151FEB015E01AE1860
:1003D000BF08C017D10759F06991D601ED91FC9182
:1003E0000190F081E02DC6010995892B79F7C501AF
:1003F000DF91CF911F910F91FF90EF90DF90CF9001
:10040000BF90AF900895FC01538D448D252F30E0AF
:10041000842F90E0821B930B541710F0CF96089511
:1004200001970895FC01918D828D981761F0A28D3E
:10043000AE0FBF2FB11D5D968C91928D9F5F9F7304
:10044000928F90E008958FEF9FEF0895FC01918DBA
:10045000828D981731F0828DE80FF11D858D90E027
:1004600008958FEF9FEF0895FC01918D228D892FC4
:1004700090E0805C9F4F821B91098F7399270895AC
:1004800086E991E00E94340221E0892B09F420E002
:10049000822F089580E090E0892B29F00E9440028D
:1004A00081110C9400000895FC01A48DA80FB92FB0
:1004B000B11DA35ABF4F2C91848D90E001968F738C
:1004C0009927848FA689B7892C93A089B1898C91AB
:1004D000837080648C93938D848D981306C00288FA
:1004E000F389E02D80818F7D80830895EF92FF92C4
:1004F0000F931F93CF93DF93EC0181E0888F9B8D47
:100500008C8D98131AC0E889F989808185FF15C000
:100510009FB7F894EE89FF896083E889F989808123
:100520008370806480839FBF81E090E0DF91CF91F2
:100530001F910F91FF90EF900895F62E0B8D10E014
:100540000F5F1F4F0F731127E02E8C8D8E110CC083
:100550000FB607FCFACFE889F989808185FFF5CFCE
:10056000CE010E945402F1CFEB8DEC0FFD2FF11D57
:10057000E35AFF4FF0829FB7F8940B8FEA89FB890B
:1005800080818062CFCF0F931F93CF93DF938C0135
:10059000D0E0C0E0F801EC0FFD1F6491662341F04C
:1005A00086E991E00E947602892B11F02196F2CF24
:1005B000CE01DF91CF911F910F910895CF93DF93DB
:1005C000EC01888D8823B9F0AA89BB89E889F9896B
:1005D0008C9185FD03C0808186FD0DC00FB607FCA0
:1005E000F7CF8C9185FFF2CF808185FFEDCFCE01D3
:1005F0000E945402E9CFDF91CF91089590E0FC0171
:10060000EA57FF4F2491FC01E759FD4F3491FC015B
:10061000EB5AFD4FE491EE23C9F0222339F0233049
:1006200001F1A8F4213019F1223029F1F0E0EE0FA8
:10063000FF1FE458FF4FA591B4918FB7F894EC9148
:10064000611126C030953E233C938FBF089527301B
:10065000A9F02830C9F0243049F7809180008F7DBF
:1006600003C0809180008F7780938000DFCF84B5B6
:100670008F7784BDDBCF84B58F7DFBCF8091B000B9
:100680008F778093B000D2CF8091B0008F7DF9CF6B
:100690003E2BDACFCF93DF9390E0FC01E759FD4F7B
:1006A00024918B5A9D4FFC0184918823D1F090E0D6
:1006B000880F991FFC01EE58FF4FA591B491FC01E2
:1006C000E458FF4FC591D491623071F49FB7F8940C
:1006D0003C91822F809583238C93E8812E2B288355
:1006E0009FBFDF91CF9108958FB7F894EC912E2B97
:1006F0002C938FBFF6CF3FB7F894809188019091EB
:100700008901A0918A01B0918B0126B5A89B05C0F3
:100710002F3F19F00196A11DB11D3FBFBA2FA92F80
:10072000982F8827BC01CD01620F711D811D911D7D
:1007300042E0660F771F881F991F4A95D1F70895E9
:100740008F929F92AF92BF92CF92DF92EF92FF92E1
:100750006B017C010E947B034B015C01C114D1043D
:10076000E104F104B9F00E947B03681979098A0950
:100770009B09683E73408105910580F321E0C21A10
:10078000D108E108F10888EE880E83E0981EA11CCC
:10079000B11CE4CFFF90EF90DF90CF90BF90AF906F
:1007A0009F908F900895FC0183898B3051F480E4F1
:1007B00092E4AFE0B0E0FB0184A395A3A6A3B7A3A6
:1007C000089580E894E8AEE1B0E0F5CFCF92DF92F3
:1007D000EF92FF92CF93DF93DC011796CC9117979E
:1007E000D0E06111DC2F18962C91189730E0220F81
:1007F000331F28593F4F50E040E0F9018591949113
:10080000FC01F080BA0190E080E0EF2DEC23ED13C5
:1008100010C04F5F5F4F1D96CD90DD90ED90FC9026
:1008200050976C157D058E059F0538F36FEF7FEFB0
:10083000CB01DF91CF91FF90EF90DF90CF900895A3
:100840008F929F92AF92BF92CF92DF92EF92FF92E0
:100850000F931F93CF93DF93CDB7DEB7C054D14032
:100860000FB6F894DEBF0FBECDBF2FB7F8944091FE
:1008700092015091930160919401709195012FBF65
:10088000FC0101851285238534856A017B01C01A2C
:10089000D10AE20AF30A97018601003D17402105BB
:1008A0003105B0F4FC018189C05CDE4F0FB6F894CD
:1008B000DEBF0FBECDBFDF91CF911F910F91FF9093
:1008C000EF90DF90CF90BF90AF909F908F90089562
:1008D0008C01FC01418752876387748714821382DD
:1008E00012821182108262E085810E944A0361E0D7
:1008F00070E080E090E00E94A00361E0F801858153
:100900000E944A0360E0F80185810E94FE02F8011E
:1009100086818551823028F58BE291E10197F1F7CC
:1009200062E0F80185810E944A03F801828990E023
:100930008230910538F0880F991F880F991F05970D
:100940000197F1F7F89460E0C8010E94E6036F3F59
:100950007F4F8F4F9F4F61F4F801118A789480E0A8
:10096000A3CF64E170E080E090E00E94A003D8CFC4
:1009700061E0C8010E94E6036F3F7F4F8F4F9F4F9A
:1009800059F3CE0101967C015E019FEBA91A9EEFFF
:10099000B90A670160E0C8010E94E603F6016083BE
:1009A00071838283938361E0C8010E94E603F601AC
:1009B0006483758386839783F8E0CF0ED11CCA14B5
:1009C000DB0441F7789430E020E0F70180809180EB
:1009D000A280B3804481558166817781FFEF8F16B5
:1009E0009F06AF06BF0631F04F3F8FEF58076807ED
:1009F000780719F4F801118AB2CFF90183E0F5956F
:100A0000E7958A95E1F7E00FF11F8081880F841642
:100A10009506A606B706F0F080832F5F3F4FF8E0FB
:100A2000EF0EF11C2832310581F6F8014481208156
:100A30008181280F3327331F8281280F311D838145
:100A4000820F932F911D99274817190699F681E077
:100A5000818B2ACF8160E0CF089590E080E00895F7
:100A600008950895CF93DF93EC0160E08E810E949A
:100A7000FE0261E08E810E94FE0260E08E810E9493
:100A8000FE028BE891E00197F1F7DF91CF91089595
:100A9000CF92DF92EF92FF920F931F93CF93DF934A
:100AA0006C017C0187E0E80EF11CD0E0C0E0062F6D
:100AB00010E0B8010C2E02C0759567950A94E2F714
:100AC0006170F70181917F010E94FE022196C4307E
:100AD000D10579F7C601DF91CF911F910F91FF905A
:100AE000EF90DF90CF900C943205CF92DF92EF928F
:100AF000FF920F931F93CF93DF93EC01F62E642F99
:100B00008C810E94FE028D818F3F19F060E00E946F
:100B1000FE020F2D10E08F8584FF25C06E0187E057
:100B2000C80ED11CF12CE12CB8010E2C02C0759519
:100B300067950A94E2F76170F60181916F010E9456
:100B4000FE02FFEFEF1AFF0A88E0E816F10461F7F2
:100B5000CE01DF91CF911F910F91FF90EF90DF9029
:100B6000CF900C943205B80184E0759567958A950D
:100B7000E1F7CE010E9448056F2DCE01DF91CF91A4
:100B80001F910F91FF90EF90DF90CF900C9448054C
:100B900040E0682F8FE792E00C947505CF93DF93C8
:100BA000823029F490918E02986090938E02809307
:100BB00092021092930280E48093940280E18093E9
:100BC000950280E58093960261E0809183020E9405
:100BD0004A03809184028F3F19F061E00E944A032A
:100BE00061E0809185020E944A03CFE7D2E09E0136
:100BF0002F57324080918E0284FD0BC084E090E03C
:100C000021962817390744F461E08E810E944A0337
:100C1000EECF88E090E0F4CF8BE39DE00197F1F711
:100C200060E0809183020E94FE0260E08091850274
:100C30000E94FE02809184028F3F19F060E00E94C2
:100C4000FE0280918E0284FD39C063E08FE792E05E
:100C50000E944805CBE4D6E4CE010197F1F763E0AA
:100C60008FE792E00E9448052197F1F763E08FE754
:100C700092E00E94480583E592E00197F1F762E077
:100C80008FE792E00E94480580918E0280620E9468
:100C9000C80584E080938F028CE00E94C80581E043
:100CA0000E94C8058BE39FE10197F1F782E08093F2
:100CB000900286E0DF91CF910C94C80580620E947B
:100CC000C8058BE496E40197F1F780918E0280626B
:100CD0000E94C80583E592E00197F1F780918E02AA
:100CE00080620E94C805D0CF41E00E94750581E076
:100CF00090E00895FB0101900020E9F73197AF01E2
:100D0000461B570BDC01ED91FC910280F381E02D35
:100D10000994CF93DF930E94C302EC0160E471E079
:100D200086E991E00E947A068C0F9D1FDF91CF919A
:100D300008958F929F92AF92BF92EF92FF920F937E
:100D40001F93CF93DF93CDB7DEB7A1970FB6F8947B
:100D5000DEBF0FBECDBF7C01FA01CB0119A222304C
:100D600008F42AE08E010F5D1F4F822E912CB12CCA
:100D7000A12CBF01A50194010E94FA0FF901CA013B
:100D80006A300CF5605DD8016E938D01232B242B06
:100D9000252B79F790E080E0109721F0BD01C70185
:100DA0000E947A06A1960FB6F894DEBF0FBECDBFA3
:100DB000DF91CF911F910F91FF90EF90BF90AF9077
:100DC0009F908F900895695CDECFCF92DF92EF9273
:100DD000FF92CF93DF936B017C01F7FE23C06DE29E
:100DE00086E991E00E94CF01EC0144275527BA0122
:100DF0004C195D096E097F092AE086E991E00E949D
:100E00009906C80FD91F60E471E086E991E00E945D
:100E10007A068C0F9D1FDF91CF91FF90EF90DF90AE
:100E2000CF9008952AE0BC01A60186E991E00E94D6
:100E30009906EC01E8CF2F923F924F925F926F920A
:100E40007F928F929F92AF92BF92CF92DF92EF925A
:100E5000FF921F93CF93DF93EC016A017B01722E07
:100E6000AB019601CB01B6010E94691263E471E007
:100E7000811126C046015701E894B7F82FEF3FEFE4
:100E80004FE75FE7C501B4010E94691281110CC0F0
:100E90002FEF3FEF4FE75FE7C501B4010E949810C5
:100EA00067E471E0181664F02FEF3FEF4FE75FE45F
:100EB000C701B6010E94F7111816B4F46BE471E093
:100EC000CE01DF91CF911F91FF90EF90DF90CF90F7
:100ED000BF90AF909F908F907F906F905F904F905A
:100EE0003F902F900C947A062FEF3FEF4FE75FEC87
:100EF000C701B6010E94981087FDE0CF20E030E0E6
:100F0000A901C701B6010E949810312C212C87FF3E
:100F100009C06DE2CE010E94CF011C01F7FAF094E6
:100F2000F7F8F09410E060E070E080E09FE3711665
:100F300041F020E030E040E251E40E949D101F5F4C
:100F4000F6CFA70196010E942C102B013C010E94B4
:100F500016114B015C012AE0BC01A401CE010E94E4
:100F600099067C01E20CF31C1123C1F1C501B40107
:100F70000E9445119B01AC01C301B2010E942B10DC
:100F80004B015C016EE2CE010E94CF01E80EF91E1A
:100F9000115020F120E030E040E251E4C501B401FD
:100FA0000E94FC112B013C010E9416114B01B12C37
:100FB000A12C2AE0B501A401CE010E949906E80EF9
:100FC000F91EC501B4010E9445119B01AC01C3018A
:100FD000B2010E942B104B015C01DACFC701DF91F7
:100FE000CF911F91FF90EF90DF90CF90BF90AF9087
:100FF0009F908F907F906F905F904F903F902F9039
:101000000895CF92DF92EF92FF920F931F93CF93A9
:10101000DF93EB01FB01349620E2DF011D922A955C
:10102000E9F744E250E060E070E0488359836A8366
:101030007B83FC0144815581668177814C835D838C
:101040006E837F834CE050E060E070E04887598712
:101050006A877B872FB7F894409192015091930152
:1010600060919401709195012FBF488B598B6A8BC9
:101070007B8B02811381C8010E942004882349F0E0
:10108000F80186818B3028F08D3040F08551823018
:1010900070F160E070E080EC9FE71BC0618170E060
:1010A00090E080E00E9447112DEC3CEC4CEC5DE3BD
:1010B0000E94FC116B017C01F801608170E090E0FE
:1010C00080E00E9447119B01AC01C701B6010E945C
:1010D0002C106C8B7D8B8E8B9F8B81E0DF91CF9161
:1010E0001F910F91FF90EF90DF90CF900895608156
:1010F000718176276727762790E080E00E9445116E
:101100002DEC3CEC4CEC5DE30E94FC11E2CF8F92A5
:101110009F92AF92BF92EF92FF921F93CF93DF9374
:10112000EB01FB01349620E2DF011D922A95E9F7DD
:1011300044E250E060E070E0488359836A837B8337
:10114000FC0144815581668177814C835D836E8388
:101150007F834DE050E060E070E0488759876A8700
:101160007B872FB7F8944091920150919301609141
:101170009401709195012FBF488B598B6A8B7B8BA3
:10118000E280F380C7010E942004882341F0F70128
:1011900086818C3009F455C038F48B30E1F060E082
:1011A00070E080EC9FE73EC085518230C0F712812D
:1011B000612F70E0762F662766277F778381682B03
:1011C00090E080E00E9445112DEC3CEC4CEC5DE39E
:1011D0000E94FC1151C0628170E090E080E00E94AA
:1011E00045114B015C01F701138117FF0AC0AC01E7
:1011F0009B0160E070E080E89FEB0E942B104B01A8
:101200005C011F70612F70E090E080E00E94471148
:101210002DEC3CEC4CEC5DE30E94FC11A50194012B
:101220000E942C106C8B7D8B8E8B9F8B81E0DF91CD
:10123000CF911F91FF90EF90BF90AF909F908F90B4
:1012400008951281612F70E090E080E00E944511C6
:101250004B015C01F70163816F7070E090E080E00A
:101260000E9447112DEC3CEC4CEC5DE30E94FC111C
:10127000A50194010E942C1017FFD4CF9058D2CF13
:10128000CF93DF93EB01FC0183894BE050E065E5F0
:1012900071E08C30C1F058F44BE050E06FE471E045
:1012A0008B3089F04BE050E067E671E00CC04BE01A
:1012B00050E06BE571E0853131F04BE050E061E6E4
:1012C00071E0863179F7CE010E94A5131B86DF916C
:1012D000CF9108950F931F93CF93DF938C01EB0170
:1012E00088E2DB011D928A95E9F7F80182819381FA
:1012F0000E94400981E090E0A0E0B0E08C879D87EB
:10130000AE87BF87F80184819581A681B781888BDC
:10131000998BAA8BBB8B8CE090E0A0E0B0E08C8B2B
:101320009D8BAE8BBF8BBE01828193810E94D303C4
:10133000D8011296ED91FC9183898C3009F441C05B
:1013400078F48B3009F1188E198E1A8E1B8E1C8E34
:101350001D8E1E8E1F8E18A219A21AA21BA22CC0AF
:101360008551823080F780E090E0A8ECB2E4888F6D
:10137000998FAA8FBB8F1C8E1D8E1E8E1F8E8DEC9B
:101380009CECACECBDE314C080E090E0A0EAB2E4D9
:10139000888F998FAA8FBB8F80E090E0A0EAB1E49C
:1013A0008C8F9D8FAE8FBF8F80E090E0A0EAB0E47D
:1013B00088A399A3AAA3BBA3DF91CF911F910F91FB
:1013C000089580E090E0AEEBB2E4E2CF0F931F937C
:1013D000CF93DF938C01EB0188E2DB011D928A95AC
:1013E000E9F7F801828193810E94400981E090E051
:1013F000A0E0B0E08C879D87AE87BF87F80184812D
:101400009581A681B781888B998BAA8BBB8B8DE048
:1014100090E0A0E0B0E08C8B9D8BAE8BBF8BBE01CB
:10142000828193810E94D303D8011296ED91FC91A1
:1014300083898C3091F178F48B30B1F0188E198E4D
:101440001A8E1B8E1C8E1D8E1E8E1F8E18A219A228
:101450001AA21BA21DC08531A9F1863179F780E05F
:1014600090E0AAEFB2E432C080E090E0A8E4B2E4F9
:10147000888F998FAA8FBB8F1C8E1D8E1E8E1F8EFC
:1014800080E090E0A0E0B0E488A399A3AAA3BBA366
:10149000DF91CF911F910F91089580E090E0A0E738
:1014A000B2E4888F998FAA8FBB8F80E090E0A0EA8A
:1014B000B1EC8C8F9D8FAE8FBF8F80E090E0A0E06D
:1014C000BFE3E2CF80E090E0A0EAB2E4888F998F9A
:1014D000AA8FBB8F80E090E0A0E2B2EC8C8F9D8F52
:1014E000AE8FBF8F8DEC9CECACECBDE3CDCF0C94FC
:1014F0001C130C941C131F920F920FB60F92112401
:101500002F933F934F935F936F937F938F939F930B
:10151000AF93BF93EF93FF9386E991E00E9454024B
:10152000FF91EF91BF91AF919F918F917F916F91BB
:101530005F914F913F912F910F900FBE0F901F9091
:1015400018951F920F920FB60F9211242F938F931D
:101550009F93EF93FF93E091A601F091A701808103
:10156000E091AC01F091AD0182FD1BC090818091B2
:10157000AF018F5F8F732091B001821741F0E0912E
:10158000AF01F0E0EA56FE4F958F8093AF01FF91D7
:10159000EF919F918F912F910F900FBE0F901F9001
:1015A00018958081F4CF1F920F920FB60F921124DD
:1015B0002F933F938F939F93AF93BF93809192010B
:1015C00090919301A0919401B09195013091870180
:1015D00023E0230F2D3758F50196A11DB11D20934F
:1015E00087018093920190939301A0939401B0930B
:1015F00095018091880190918901A0918A01B09113
:101600008B010196A11DB11D8093880190938901E2
:10161000A0938A01B0938B01BF91AF919F918F915D
:101620003F912F910F900FBE0F901F90189526E8B5
:10163000230F0296A11DB11DD2CF1F920F920FB69C
:101640000F9211242F933F934F935F936F937F9348
:101650008F939F93AF93BF93CF93DF93EF93FF93BA
:1016600080918601C0915702D0E087FF24C010927C
:10167000850010928400809186018F5F809386019F
:1016800080918601082E000C990B8C179D0724F47D
:10169000809186018C30C4F1809184009091850006
:1016A000049680349C4908F47AC08091840090911B
:1016B0008500049676C080918601082E000C990B57
:1016C0008C179D07C4F6E09186018E2FEE0F990BC3
:1016D000FC01EE0FFF1FE80FF91FED5CFD4F80814D
:1016E00086FFC9CFE09186018E2FEE0F990BFC018A
:1016F000EE0FFF1FE80FF91FED5CFD4F808160E0EA
:101700008F730E94FE02B7CF209184003091850034
:10171000E09186018E2FEE0F990BFC01EE0FFF1F5B
:10172000E80FF91FED5CFD4F81819281820F931FBD
:101730009093890080938800E09186018E2FEE0FB0
:10174000990BFC01EE0FFF1FE80FF91FED5CFD4F39
:10175000808186FF11C0E09186018E2FEE0F990BDC
:10176000FC01EE0FFF1FE80FF91FED5CFD4F8081BC
:1017700061E08F730E94FE02FF91EF91DF91CF91A4
:10178000BF91AF919F918F917F916F915F914F9199
:101790003F912F910F900FBE0F901F90189580E4EE
:1017A0009CE990938900809388008FEF8093860155
:1017B000E3CFCF93DF93109299011092980188EEB6
:1017C00093E0A0E0B0E080939A0190939B01A093F6
:1017D0009C01B0939D018AE091E0909397018093E2
:1017E000960185EC90E09093A3018093A20184EC94
:1017F00090E09093A5018093A40180EC90E09093F9
:10180000A7018093A60181EC90E09093A9018093B9
:10181000A80182EC90E09093AB018093AA0186EC42
:1018200090E09093AD018093AC011092AF011092C3
:10183000B0011092B1011092B20110928202109286
:10184000810288E391E09093800280937F028CE094
:1018500080938302DFEFD0938402CBE0C0938502B4
:1018600085E08093860284E08093870283E0809302
:10187000880282E08093890210928A0210928B0281
:1018800010928C0210928D0210928E0281E00E94C2
:10189000CE052BE532E08AE080936002C0936102BE
:1018A000E3E7F2E0E491E0936202EFE5F2E0E49135
:1018B000E093630280E89EE3A0E0B0E080936802DA
:1018C00090936902A0936A02B0936B02C0936E0278
:1018D0008AE291E09093700280936F0230937202DB
:1018E000209371028FEF9FEFDC018093730290933E
:1018F0007402A0937502B09376024CE151E05093CC
:1019000078024093770230937A0220937902809391
:101910007B0290937C02A0937D02B0937E02809123
:1019200057028C30A8F491E0980F9093570280935F
:10193000580290E0FC01EE0FFF1FE80FF91FED5C6D
:10194000FD4F88EB9BE092838183DF91CF910895D7
:10195000D0935802FACFCF93DF93CDB7DEB7E0979D
:101960000FB6F894DEBF0FBECDBF789484B5826009
:1019700084BD84B5816084BD85B5826085BD85B533
:10198000816085BD80916E00816080936E001092B1
:10199000810080918100826080938100809181002C
:1019A00081608093810080918000816080938000BD
:1019B0008091B10084608093B1008091B00081601B
:1019C0008093B00080917A00846080937A00809147
:1019D0007A00826080937A0080917A00816080939F
:1019E0007A0080917A00806880937A001092C1001A
:1019F00082E00E94CE05E091A601F091A70182E06D
:101A00008083E091A201F091A3011082E091A401F2
:101A1000F091A5018FEC80831092AE01E091AA01B4
:101A2000F091AB0186E08083E091A801F091A901DB
:101A3000808180618083E091A801F091A90180817B
:101A400088608083E091A801F091A901808180687D
:101A50008083E091A801F091A90180818F7D80832E
:101A600062E0809160020E944A032FB7F89480914F
:101A7000920190919301A0919401B09195012FBF93
:101A8000805D9740A109B10980936402909365023B
:101A9000A0936602B093670287E380936D0286EE9F
:101AA00091E00E9489068AE291E09AA789A7809135
:101AB0007102909172029CA78BA780917302909102
:101AC0007402A0917502B09176028DA79EA7AFA770
:101AD000B8ABBE016F5F7F4FCE0189960E94E609C9
:101AE00081EC91E00E9489068EEA91E00E948906CD
:101AF00080EA91E00E94C302BE016F5F7F4F86E9DA
:101B000091E00E947A0660E471E086E991E00E942B
:101B10007A0682E991E00E94C3026D857E858F85F9
:101B200098890E94E50684E891E00E94C3026989D1
:101B30007A898B899C890E94E50686E791E00E945C
:101B4000C302498D5A8D6B8D7C8D22E086E991E030
:101B50000E941B0782E791E00E94890684E691E0DB
:101B60000E94C3024D8D5E8D6F8D78A122E086E9C3
:101B700091E00E941B0780E691E00E94890682E5C1
:101B800091E00E94C30249A15AA16BA17CA122E06D
:101B900086E991E00E941B078EE491E00E9489068D
:101BA00089E291E00E9489068CE191E09AA789A7D9
:101BB0008091790290917A029CA78BA780917B02F9
:101BC00090917C02A0917D02B0917E028DA79EA78C
:101BD000AFA7B8ABBE016F5F7F4FCE0189960E9461
:101BE0006A0989E191E00E9489068BE091E00E94F8
:101BF000C302BE016F5F7F4F86E991E00E947A06C3
:101C000060E471E086E991E00E947A068DEF90E051
:101C10000E94C3026D857E858F8598890E94E506A6
:101C20008FEE90E00E94C30269897A898B899C8932
:101C30000E94E50681EE90E00E94C302498D5A8D14
:101C40006B8D7C8D22E086E991E00E941B078FED71
:101C500090E00E94890681ED90E00E94C3024D8DC4
:101C60005E8D6F8D78A122E086E991E00E941B07CE
:101C70008FEC90E00E94890681EC90E00E94C30204
:101C800049A15AA16BA17CA122E086E991E00E94C2
:101C90001B078FEB90E00E9489068AE990E00E9482
:101CA00089066DA17EA18FA198A528EE33E040E0C2
:101CB00050E00E94C80F20938E0130938F01409313
:101CC000900150939101809158028C3008F051C0DE
:101CD00061E086E00E944A0380915802282F30E09C
:101CE000F901EE0FFF1FE20FF31FED5CFD4F908136
:101CF000907C966090831092590210925A022CE0C8
:101D0000622F0E946E12829FB001112430E020E009
:101D1000AB01420F531FFA01EE0FFF1FE40FF51F37
:101D2000ED5CFD4F908196FD16C02F5F3F4F2C302C
:101D3000310571F781110FC01092800082E080930D
:101D400081001092850010928400B19A80916F00FA
:101D5000826080936F00E09158028E2F90E0FC012A
:101D6000EE0FFF1FE80FF91FED5CFD4F80818064CF
:101D7000808390E080E00E946A016FE070E080E084
:101D800090E00E94A0030AE211E08CE1E82E81E0DD
:101D9000F82E90E0C92E90E0D92E60918E017091BE
:101DA0008F0180919001909191010E94A0031AA748
:101DB00009A780917102909172029CA78BA78091D4
:101DC000730290917402A0917502B09176028DA772
:101DD0009EA7AFA7B8ABBE016F5F7F4FCE018996BC
:101DE0000E9487086D897E898F89988D9B01AC013F
:101DF0000E946912882309F4A9C08AE392E00E9434
:101E00008906FAA6E9A68091790290917A029CA7A8
:101E10008BA780917B0290917C02A0917D02B09172
:101E20007E028DA79EA7AFA7B8ABBE016F5F7F4FA5
:101E3000CE0189960E9401086D897E898F89988DCF
:101E40009B01AC010E94691281119AC08DE192E060
:101E50000E94C3024D895E896F89788D22E086E9F0
:101E600091E00E941B078BE192E00E948906E091BD
:101E70009202E23008F087C0E150F0E0E158FD4FF7
:101E8000848980680E94C8056CE671E08FE792E063
:101E90000E947A064D895E896F89788D22E08FE7EE
:101EA00092E00E941B07E1E0809192028111E0E044
:101EB000E195F0E0E158FD4F848980680E94C805F3
:101EC00067E771E08FE792E00E947A0680908C01CC
:101ED00090908D01092C000CAA08BB082AE0B501DE
:101EE000A401B7FE0DC06DE28FE792E00E94CF0122
:101EF00044275527BA01481959096A097B092AE07C
:101F00008FE792E00E94990620E030E040E752E43B
:101F10006D897E898F89988D0E94F7111816ACF50E
:101F200090E080E00E946A016AE070E080E090E06A
:101F30000E94A003C114D10409F42FCF0E944002D3
:101F4000882309F42ACF0E94000027CF8CE292E078
:101F50000E94C3024D895E896F89788D22E086E9EF
:101F600091E00E941B076D897E898F89988D0E9460
:101F70000F1170938D0160938C0188E292E03FCF46
:101F800083E092E072CFE1E078CF84EB90E0CACFBB
:101F9000052E97FB1EF400940E94DF0F57FD07D01B
:101FA0000E94FA0F07FC03D04EF40C94DF0F5095FB
:101FB0004095309521953F4F4F4F5F4F0895909535
:101FC0008095709561957F4F8F4F9F4F08950E9428
:101FD0001C10A59F900DB49F900DA49F800D911D86
:101FE00011240895B7FF0C94E70F0E94E70F821B9E
:101FF000930B0895A1E21A2EAA1BBB1BFD010DC075
:10200000AA1FBB1FEE1FFF1FA217B307E407F507A8
:1020100020F0A21BB30BE40BF50B661F771F881F84
:10202000991F1A9469F760957095809590959B011A
:10203000AC01BD01CF010895A29FB001B39FC001C3
:10204000A39F700D811D1124911DB29F700D811DE4
:102050001124911D08955058BB27AA270E944310B0
:102060000C94BD110E94AF1138F00E94B61120F0FF
:1020700039F49F3F19F426F40C94AC110EF4E0955A
:10208000E7FB0C94A611E92F0E94CE1158F3BA1762
:10209000620773078407950720F079F4A6F50C947E
:1020A000F0110EF4E0950B2EBA2FA02D0B01B90103
:1020B00090010C01CA01A0011124FF27591B99F0BE
:1020C000593F50F4503E68F11A16F040A22F232FCA
:1020D000342F4427585FF3CF469537952795A7951A
:1020E000F0405395C9F77EF41F16BA0B620B730BC1
:1020F000840BBAF09150A1F0FF0FBB1F661F771F32
:10210000881FC2F70EC0BA0F621F731F841F48F4E6
:10211000879577956795B795F7959E3F08F0B0CF6F
:102120009395880F08F09927EE0F97958795089556
:102130000E94821108F481E008950E94B1100C946D
:10214000BD110E94B61158F00E94AF1140F029F461
:102150005F3F29F00C94A61151110C94F1110C94CD
:10216000AC110E94CE1168F39923B1F3552391F37A
:10217000951B550BBB27AA2762177307840738F0F6
:102180009F5F5F4F220F331F441FAA1FA9F335D053
:102190000E2E3AF0E0E832D091505040E695001C07
:1021A000CAF72BD0FE2F29D0660F771F881FBB1FC1
:1021B000261737074807AB07B0E809F0BB0B802D9F
:1021C000BF01FF2793585F4F3AF09E3F510578F0CB
:1021D0000C94A6110C94F1115F3FE4F3983ED4F3F4
:1021E000869577956795B795F7959F5FC9F7880F9F
:1021F000911D9695879597F90895E1E0660F771FF1
:10220000881FBB1F621773078407BA0720F0621B81
:10221000730B840BBA0BEE1F88F7E09508950E94AC
:1022200016116894B1110C94F11108950E94D61101
:1022300088F09F5798F0B92F9927B751B0F0E1F087
:10224000660F771F881F991F1AF0BA95C9F714C037
:10225000B13091F00E94F011B1E008950C94F011AA
:10226000672F782F8827B85F39F0B93FCCF3869570
:1022700077956795B395D9F73EF4909580957095CD
:1022800061957F4F8F4F9F4F0895E89409C097FB4A
:102290003EF490958095709561957F4F8F4F9F4F3D
:1022A0009923A9F0F92F96E9BB279395F695879581
:1022B00077956795B795F111F8CFFAF4BB0F11F444
:1022C00060FF1BC06F5F7F4F8F4F9F4F16C08823EB
:1022D00011F096E911C0772321F09EE8872F762F21
:1022E00005C0662371F096E8862F70E060E02AF062
:1022F0009A95660F771F881FDAF7880F969587954E
:1023000097F90895990F0008550FAA0BE0E8FEEF22
:1023100016161706E807F907C0F012161306E407A9
:10232000F50798F0621B730B840B950B39F40A26A2
:1023300061F0232B242B252B21F408950A2609F480
:10234000A140A6958FEF811D811D089597F99F6784
:1023500080E870E060E008959FEF80EC089500242D
:102360000A941616170618060906089500240A94FA
:1023700012161306140605060895092E0394000C80
:1023800011F4882352F0BB0F40F4BF2B11F460FF0F
:1023900004C06F5F7F4F8F4F9F4F089557FD905838
:1023A000440F551F59F05F3F71F04795880F97FB19
:1023B000991F61F09F3F79F08795089512161306D3
:1023C0001406551FF2CF4695F1DF08C01616170602
:1023D0001806991FF1CF8695710561050894089537
:1023E000E894BB2766277727CB0197F908950E94C9
:1023F000821108F48FEF08950E940F120C94BD1102
:102400000E94AF1138F00E94B61120F0952311F010
:102410000C94A6110C94AC1111240C94F1110E948F
:10242000CE1170F3959FC1F3950F50E0551F629F39
:10243000F001729FBB27F00DB11D639FAA27F00D1D
:10244000B11DAA1F649F6627B00DA11D661F829F44
:102450002227B00DA11D621F739FB00DA11D621F29
:10246000839FA00D611D221F749F3327A00D611D46
:10247000231F849F600D211D822F762F6A2F112428
:102480009F5750409AF0F1F088234AF0EE0FFF1F5B
:10249000BB1F661F771F881F91505040A9F79E3FB2
:1024A000510580F00C94A6110C94F1115F3FE4F3F8
:1024B000983ED4F3869577956795B795F795E79508
:1024C0009F5FC1F7FE2B880F911D9695879597F911
:1024D00008950E948211880B990B0895991B79E049
:1024E00004C0991F961708F0961B881F7A95C9F7A4
:1024F00080950895EE0FFF1F0590F491E02D09944B
:102500000F931F93CF93DF938230910510F482E0F5
:1025100090E0E0919902F0919A0230E020E0B0E082
:10252000A0E0309799F42115310509F44AC0281B21
:10253000390B24303105D8F58A819B8161157105ED
:1025400089F1FB0193838283FE0111C04081518197
:102550000281138148175907E0F04817590799F489
:10256000109761F012960C93129713961C93329663
:10257000CF01DF91CF911F910F91089500939902A0
:1025800010939A02F4CF2115310551F042175307E9
:1025900038F0A901DB019A01BD01DF01F801C1CFCB
:1025A000EF01F9CF90939A0280939902CDCFFE016B
:1025B000E20FF31F819391932250310939832883CD
:1025C000D7CF2091970230919802232B41F420918C
:1025D00002013091030130939802209397022091D9
:1025E0000001309101012115310541F42DB73EB7AD
:1025F0004091040150910501241B350BE091970295
:10260000F0919802E217F307A0F42E1B3F0B281756
:10261000390778F0AC014E5F5F4F2417350748F05B
:102620004E0F5F1F509398024093970281939193AE
:102630009FCFF0E0E0E09CCFCF93DF930097E9F0ED
:10264000FC01329713821282A0919902B0919A02F2
:10265000ED0130E020E01097A1F420813181820F5C
:10266000931F20919702309198022817390709F09B
:1026700061C0F0939802E0939702DF91CF910895A3
:10268000EA01CE17DF07E8F54A815B819E0141151B
:102690005105B1F7E901FB83EA8349915991C40FD0
:1026A000D51FEC17FD0761F4808191810296840F9C
:1026B000951FE90199838883828193819B838A8313
:1026C000F0E0E0E012968D919C9113970097B9F598
:1026D0002D913C911197CD010296820F931F20916D
:1026E0009702309198022817390739F6309751F53B
:1026F00010929A0210929902B0939802A0939702B6
:10270000BCCFD383C28340815181840F951FC817EA
:10271000D90761F44E5F5F4F88819981480F591F37
:10272000518340838A819B81938382832115310564
:1027300009F0B0CFF0939A02E09399029ECFFD0189
:10274000DC01C0CF13821282D7CFFB01DC014150E4
:10275000504048F001900D920020C9F701C01D9231
:0C27600041505040E0F70895F894FFCF7E
:10276C0000009B028000000000007602D6010302EC
:10277C00DE02340212022602000000003005770A45
:10278C00310501086A09000000003005790A31059D
:10279C008708E609000000007406D6012D052C05FB
:1027AC000D0A006E616E00696E66006F76660044FD
:1027BC004854313100444854313200444854323189
:1027CC00004448543232004448543F0048756D6907
:1027DC00646974793A200054656D70657261747522
:0627EC0072653A200000B6
:00000001FF
